:100000006F00000A000000001C0100001A0100003F
:1000100000000000000000000000000000000000E0
:1000200000000000000000000000000000000000D0
:100030001A010000000000001A010000000000008A
:100040001A0100001A0100001A0100001A01000044
:100050001A0100001A0100001A0100001A01000034
:100060001A0100001A0100001A0100001A01000024
:100070001A0100001A0100001A0100001A01000014
:100080001A0100001A0100001A0100001A01000004
:100090001A0100001A0100001A010000000000000F
:1000A000970100209381817A138181FB1305000859
:1000B000731005308D46170500001305A5F4558D06
:1000C0007310553017050020130545F897050020DB
:1000D0009385C5F701466356B50010C11105E34E7F
:1000E000B5FE1305002E970500209385A5F1170690
:1000F00000201306A6F56388C500144194C11105BC
:100100009105E39AC5FEB7F700E0154798C393073A
:100110004029739017347300203001A03717024034
:100120001C47B7068000D58F1CC7AA8703C70700E6
:1001300001E73385A74082808507CDBF2A96AA872D
:100140006393C70082802380B7008507D5BF8147AE
:100150006313F60082803387F50083460700330778
:10016000F50085072300D700E5B701476300E602E5
:10017000B307E5000507B386E50083C7070083C61C
:10018000F6FFE385D7FE3385D74082800145828024
:10019000511122C206C42A84493F8147B746014013
:1001A00063C1A702374701408357078093F70704CD
:1001B000E5DFA2401244A9472312F780050531016B
:1001C000828003D706801377070465DF3307F400C6
:1001D0000347070085072392E680D9B737470140D8
:1001E0008357078093F70704E5DF1375F50F231294
:1001F000A78005458280B7270240054798C3B717F7
:1002000002403707080123A207001307170898C305
:1002100037079F0098C7B7060002371702401C43F4
:10022000F58FF5DF5C432146F19B93E727005CC324
:10023000B7170240D843318BE31EC7FE984F916633
:1002400093860602558F98CFB717014003A7074042
:10025000B70610FFFD16758F23A0E74003A70740E0
:10026000B7069000558F23A0E740B747014023967B
:10027000C78023980780239A07801307101A2394B6
:10028000E78003D7C780896642074183558F23964D
:10029000E7808280511106C4B93FB7066745B7278A
:1002A0000240938636123797EFCDD4C31307B79A1F
:1002B000D8C394D798D7D847F176FD16758FD8C78D
:1002C000984BA24001451367070898CBB707EFBECC
:0E02D00037E700E0938707083CC731018280C2
:1002E00001020304050607080102030405060708C6
:1002F0000204060804080C100810182010203040D2
:10030000204060800102030405060708010203047F
:10031000050607080204060804080C100810182037
:080320001020304020406080F5
:00000001FF
